:020000040000FA
:020000000528D1
:080008001D2885018601A101FC
:1000100083160313F530860000308500D730810049
:10002000831203130130A2008B178B168611061D55
:1000300016288615061D16281A288B1835200B1829
:100040003C200B11EF308100A00A32302002031D4A
:100050002D28A001211C31282E28090085012110FE
:10006000090022088500211409008B1001302202AA
:1000700003190800A20308000B100F302202031915
:100080000800061AA20A861AA20A061BA20A861BE2
:04009000A20A0800B8
:02400E00103F61
:00000001FF
