:020000040000FA
:1000000086010310831603138601073085008312CF
:10001000031307309F00860105181328851816283A
:10002000051919280B28803086002B2801308600FE
:100030003128803086001F28013086002528860C54
:1000400006181C2837284B201F28860D861B1928C8
:100050003C284B20252806181328860C46284B20C0
:100060002B28861B1628860D41284B203128051881
:100070001328851816281F280518132885181628F0
:100080002528051813280519192831288518162838
:10009000051919282B288130A0008130A100A10B5F
:0A00A0004F28A00B4D284B28080044
:02400E00303F41
:00000001FF
